:100000000C945D000C9485000C9485000C94850084
:100010000C9485000C9485000C9485000C9485004C
:100020000C9485000C9485000C9485000C9485003C
:100030000C9485000C9485000C9485000C9485002C
:100040000C9489030C9485000C9457030C94310391
:100050000C9485000C9485000C9485000C9485000C
:100060000C9485000C9485000000000024002700FB
:100070002A0000000000250028002B0004040404CE
:100080000404040402020202020203030303030342
:10009000010204081020408001020408102001021F
:1000A00004081020000000080002010000030407FB
:1000B0000000000000000000D30311241FBECFEF9A
:1000C000D8E0DEBFCDBF11E0A0E0B1E0E8EBF2E1A7
:1000D00002C005900D92AC31B107D9F721E0ACE137
:1000E000B1E001C01D92AC3DB207E1F710E0CDE5F3
:1000F000D0E004C02197FE010E942F08CC35D10723
:10010000C9F70E942C040C945A090C940000AF9279
:10011000BF92CF92DF92EF92FF920F931F93CF93F4
:10012000DF936C017B018B01040F151FEB015E0156
:10013000AE18BF08C017D10759F06991D601ED91EB
:10014000FC910190F081E02DC6010995892B79F78A
:10015000C501DF91CF911F910F91FF90EF90DF903C
:10016000CF90BF90AF900895FC01538D448D252F03
:1001700030E0842F90E0821B930B541710F0CF9641
:10018000089501970895FC01918D828D981761F073
:10019000A28DAE0FBF2FB11D5D968C91928D9F5F8A
:1001A0009F73928F90E008958FEF9FEF0895FC0169
:1001B000918D828D981731F0828DE80FF11D858D1C
:1001C00090E008958FEF9FEF0895FC01918D228DAF
:1001D000892F90E0805C9F4F821B91098F73992734
:1001E000089585E291E00E94E50021E0892B09F461
:1001F00020E0822F089580E090E0892B29F00E9472
:10020000F10081110C9400000895FC01A48DA80F49
:10021000B92FB11DA35ABF4F2C91848D90E0019648
:100220008F739927848FA689B7892C93A089B18968
:100230008C91837080648C93938D848D981306C009
:100240000288F389E02D80818F7D80830895EF926D
:10025000FF920F931F93CF93DF93EC0181E0888F80
:100260009B8D8C8D98131AC0E889F989808185FF50
:1002700015C09FB7F894EE89FF896083E889F989F2
:1002800080818370806480839FBF81E090E0DF91F4
:10029000CF911F910F91FF90EF900895F62E0B8D47
:1002A00010E00F5F1F4F0F731127E02E8C8D8E1102
:1002B0000CC00FB607FCFACFE889F989808185FF69
:1002C000F5CFCE010E940501F1CFEB8DEC0FFD2F94
:1002D000F11DE35AFF4FF0829FB7F8940B8FEA8924
:1002E000FB8980818062CFCFCF93DF93EC01888D33
:1002F0008823B9F0AA89BB89E889F9898C9185FDA1
:1003000003C0808186FD0DC00FB607FCF7CF8C912E
:1003100085FFF2CF808185FFEDCFCE010E940501E0
:10032000E9CFDF91CF91089590E0FC01EC55FF4FAC
:100330002491FC01E057FF4F3491FC01E458FF4F3A
:10034000E491EE23C9F0222339F0233001F1A8F41F
:10035000213019F1223029F1F0E0EE0FFF1FEE58A5
:10036000FF4FA591B4918FB7F894EC91611126C01D
:1003700030953E233C938FBF08952730A9F0283055
:10038000C9F0243049F7809180008F7D03C08091AF
:1003900080008F7780938000DFCF84B58F7784BD16
:1003A000DBCF84B58F7DFBCF8091B0008F778093BA
:1003B000B000D2CF8091B0008F7DF9CF3E2BDACF45
:1003C000CF93DF9390E0FC01E057FF4F24918458D6
:1003D0009F4FFC0184918823C9F090E0880F991FFA
:1003E000FC01E859FF4FA591B491FC01EE58FF4F75
:1003F000C591D49161110DC09FB7F8948C9120954F
:1004000082238C938881282328839FBFDF91CF91FB
:100410000895623051F49FB7F8943C91822F8095F3
:1004200083238C93E8812E2BEFCF8FB7F894EC9138
:100430002E2B2C938FBFEACF3FB7F89480912101E8
:1004400090912201A0912301B091240126B5A89B8F
:1004500005C02F3F19F00196A11DB11D3FBFBA2F56
:10046000A92F982F8827BC01CD01620F711D811D16
:10047000911D42E0660F771F881F991F4A95D1F79B
:1004800008958F929F92AF92BF920F931F93CF9335
:10049000DF93CDB7DEB7A1970FB6F894DEBF0FBEDE
:1004A000CDBF19A2423008F44AE08E010F5D1F4F04
:1004B000842E912CB12CA12CA50194010E94E7055A
:1004C000E62FB901CA01EA3044F5E05DD801EE93A8
:1004D0008D01232B242B252B79F790E080E01097BA
:1004E00069F0FD0101900020E9F73197AF014A1B47
:1004F0005B0BBD0185E291E00E948700A1960FB6DB
:10050000F894DEBF0FBECDBFDF91CF911F910F9149
:10051000BF90AF909F908F900895E95CD7CF1F93C5
:10052000CF93DF93C82F682F6095661F6627661FDD
:100530006093C70170E090E080E04AE00E944102D1
:1005400042E050E068E171E085E291E00E948700BE
:10055000AC2FCC0FBB0B4091CA015091CB01882727
:100560009927841B950BA817B9076CF5A42FA195A3
:100570000A2E000CBB0BB7FF03C0B195A195B109C2
:100580000A2E000CBB0B2FEF30E00E9428089A01C6
:10059000550F440B550B0E94C805C22F6091C7012F
:1005A0008091C3010E949401D091C20161E08D2F1E
:1005B0000E94E001C1110CC060E08D2FDF91CF914E
:1005C0001F910C9494014A175B0794F6DA01D0CF7F
:1005D000ED2FF0E0EC55FF4FE491E33029F148F4C2
:1005E000E130D1F0E23041F784B5806284BDC8BD0E
:1005F00017C0E73031F1E83061F1E430E9F680917D
:1006000080008062809380000C2E000CDD0BD09364
:100610008B00C0938A0004C084B5806884BDC7BDC8
:10062000DF91CF911F910895809180008068809321
:1006300080000C2E000CDD0BD0938900C093880045
:10064000EFCF8091B00080688093B000C093B3007A
:10065000E7CF8091B00080628093B000C093B40077
:10066000DFCF1F920F920FB60F9211242F933F935B
:100670004F935F936F937F938F939F93AF93BF93AA
:10068000EF93FF9385E291E00E940501FF91EF91C6
:10069000BF91AF919F918F917F916F915F914F919A
:1006A0003F912F910F900FBE0F901F9018951F92A2
:1006B0000F920FB60F9211242F938F939F93EF9366
:1006C000FF93E0913501F09136018081E0913B018B
:1006D000F0913C0182FD1BC0908180913E018F5FB3
:1006E0008F7320913F01821741F0E0913E01F0E0CD
:1006F000EB5DFE4F958F80933E01FF91EF919F91AF
:100700008F912F910F900FBE0F901F9018958081A1
:10071000F4CF1F920F920FB60F9211242F933F9395
:100720008F939F93AF93BF9380911D0190911E0172
:10073000A0911F01B091200130911C0123E0230FF3
:100740002D3758F50196A11DB11D20931C018093F2
:100750001D0190931E01A0931F01B0932001809171
:10076000210190912201A0912301B09124010196D1
:10077000A11DB11D8093210190932201A09323011B
:10078000B0932401BF91AF919F918F913F912F9191
:100790000F900FBE0F901F90189526E8230F02961A
:1007A000A11DB11DD2CFCF93DF93E5E2F1E013821B
:1007B000128288EE93E0A0E0B0E084839583A68364
:1007C000B7838AE091E09183808385EC90E0958700
:1007D000848784EC90E09787868780EC90E0918B0B
:1007E000808B81EC90E0938B828B82EC90E0958BF8
:1007F000848B86EC90E0978B868B118E128E138EF5
:10080000148EC2ECD1E083E290E09987888780EA79
:100810009FE09B878A871D8A1C8A8AE097EDA3E266
:10082000BCE38C879D87AE87BF8789E190E0998B79
:10083000888B82E390E00E9435089B8B8A8B89E04D
:10084000888388E0898387E08A8386E08B838EE0D3
:100850008C83DF91CF910895CF93DF9300D000D0A8
:10086000CDB7DEB7789484B5826084BD84B58160ED
:1008700084BD85B5826085BD85B5816085BD80916B
:100880006E00816080936E001092810080918100E3
:1008900082608093810080918100816080938100DB
:1008A000809180008160809380008091B10084609D
:1008B0008093B1008091B00081608093B0008091FE
:1008C0007A00846080937A0080917A0082608093BD
:1008D0007A0080917A00816080937A0080917A001A
:1008E000806880937A001092C100E0913501F09108
:1008F000360182E08083E0913101F0913201108273
:10090000E0913301F09134018FEC808310923D012E
:10091000E0913901F0913A0186E08083E09137015E
:10092000F0913801808180618083E0913701F091FE
:100930003801808188608083E0913701F09138012F
:10094000808180688083E0913701F0913801808157
:100950008F7D808361E08091C2010E94E00161E0AF
:100960008091C3010E94E00161E08091C4010E9476
:10097000E00162E08091C5010E94E00160E08091A9
:10098000C6010E94E00180918100887F8160809390
:10099000810080E00E948F0261E08091C4010E948A
:1009A00094010E941C026B017C010E941C026C19C4
:1009B0007D098E099F09683E734081059105A8F362
:1009C0008091C6018E3008F045C0877080648093A6
:1009D0007C0080917A00806480937A0080917A0014
:1009E00086FDFCCF2090780060917900362E8090B3
:1009F000CE019090CF01A090D001B090D101A5017F
:100A0000940160E070E080E89FE30E9418062B01EB
:100A10003C018091D6019091D7012091D401309171
:100A2000D5014091D2015091D30184179507A4F0CC
:100A3000F90150E040E08091D2019091D301481734
:100A400059070CF041C082819381819391934F5F4C
:100A50005F4FF1CF8E50B9CFAC014F5F5F4F5093D6
:100A6000D7014093D601880F991FF901E80FF91FAC
:100A7000318220820091D6011091D7013A832983D7
:100A80001C821B82C12CD12C76018B819C8180170A
:100A9000910794F5E981FA8161917191FA83E98373
:100AA000072E000C880B990B0E942F079B01AC01AD
:100AB000C701B6010E9419066B017C018B819C81E4
:100AC00001969C838B83E1CFFC01E150F048EE0F4F
:100AD000FF1FE20FF31F118210823093D501209384
:100AE000D401E091D201F091D301E150F048EE0F32
:100AF000FF1FE20FF31FBCCF101611060CF044C00D
:100B0000B801110F880B990B0E942F079B01AC01B4
:100B1000C701B6010E9485066B017C01B101330C4F
:100B2000880B990B0E942F07A50194010E94BB0717
:100B30004B015C01A7019601C301B2010E94BB07F2
:100B40009B01AC01C501B4010E9419060E94F70681
:100B50007093C9016093C80160E08091C4010E9454
:100B6000940186EF0E948F0261E08091C4010E948F
:100B70009401E0E0F0E0EF2BE1F30E94F100882324
:100B8000C1F30E940000F5CFC12CD12C7601C6CF55
:100B9000052E97FB1EF400940E94DF0557FD07D039
:100BA0000E94E70507FC03D04EF40C94DF05509536
:100BB0004095309521953F4F4F4F5F4F0895909549
:100BC0008095709561957F4F8F4F9F4F0895A1E25B
:100BD0001A2EAA1BBB1BFD010DC0AA1FBB1FEE1FB7
:100BE000FF1FA217B307E407F50720F0A21BB30B02
:100BF000E40BF50B661F771F881F991F1A9469F77E
:100C000060957095809590959B01AC01BD01CF01D9
:100C10000895A29FB001B39FC001A39F700D811DD5
:100C20001124911DB29F700D811D1124911D0895F5
:100C30005058BB27AA270E9430060C9481070E94B7
:100C4000730738F00E947A0720F039F49F3F19F4B7
:100C500026F40C9470070EF4E095E7FB0C946A07F9
:100C6000E92F0E94920758F3BA17620773078407A7
:100C7000950720F079F4A6F50C94B4070EF4E095EE
:100C80000B2EBA2FA02D0B01B90190010C01CA0146
:100C9000A0011124FF27591B99F0593F50F4503EF1
:100CA00068F11A16F040A22F232F342F4427585FE3
:100CB000F3CF469537952795A795F0405395C9F7FB
:100CC0007EF41F16BA0B620B730B840BBAF09150B3
:100CD000A1F0FF0FBB1F661F771F881FC2F70EC052
:100CE000BA0F621F731F841F48F487957795679525
:100CF000B795F7959E3F08F0B0CF9395880F08F011
:100D00009927EE0F9795879508950E9499060C9460
:100D100081070E947A0758F00E94730740F029F477
:100D20005F3F29F00C946A0751110C94B5070C949D
:100D300070070E94920768F39923B1F3552391F34A
:100D4000951B550BBB27AA2762177307840738F03A
:100D50009F5F5F4F220F331F441FAA1FA9F335D097
:100D60000E2E3AF0E0E832D091505040E695001C4B
:100D7000CAF72BD0FE2F29D0660F771F881FBB1F05
:100D8000261737074807AB07B0E809F0BB0B802DE3
:100D9000BF01FF2793585F4F3AF09E3F510578F00F
:100DA0000C946A070C94B5075F3FE4F3983ED4F3C4
:100DB000869577956795B795F7959F5FC9F7880FE3
:100DC000911D9695879597F90895E1E0660F771F35
:100DD000881FBB1F621773078407BA0720F0621BC6
:100DE000730B840BBA0BEE1F88F7E09508950E94F1
:100DF000FE066894B1110C94B50708950E949A07F5
:100E000088F09F5798F0B92F9927B751B0F0E1F0CB
:100E1000660F771F881F991F1AF0BA95C9F714C07B
:100E2000B13091F00E94B407B1E008950C94B4077A
:100E3000672F782F8827B85F39F0B93FCCF38695B4
:100E400077956795B395D9F73EF490958095709511
:100E500061957F4F8F4F9F4F0895E89409C097FB8E
:100E60003EF490958095709561957F4F8F4F9F4F81
:100E70009923A9F0F92F96E9BB279395F6958795C5
:100E800077956795B795F111F8CFFAF4BB0F11F488
:100E900060FF1BC06F5F7F4F8F4F9F4F16C088232F
:100EA00011F096E911C0772321F09EE8872F762F65
:100EB00005C0662371F096E8862F70E060E02AF0A6
:100EC0009A95660F771F881FDAF7880F9695879592
:100ED00097F9089597F99F6780E870E060E00895BA
:100EE0009FEF80EC089500240A9416161706180642
:100EF0000906089500240A9412161306140605061E
:100F00000895092E0394000C11F4882352F0BB0FAE
:100F100040F4BF2B11F460FF04C06F5F7F4F8F4F11
:100F20009F4F089557FD9058440F551F59F05F3F4C
:100F300071F04795880F97FB991F61F09F3F79F0FB
:100F400087950895121613061406551FF2CF46957D
:100F5000F1DF08C0161617061806991FF1CF8695FF
:100F60007105610508940895E894BB2766277727E3
:100F7000CB0197F908950E94CE070C9481070E9437
:100F8000730738F00E947A0720F0952311F00C9433
:100F90006A070C94700711240C94B5070E949207FD
:100FA00070F3959FC1F3950F50E0551F629FF001BC
:100FB000729FBB27F00DB11D639FAA27F00DB11DD5
:100FC000AA1F649F6627B00DA11D661F829F22275E
:100FD000B00DA11D621F739FB00DA11D621F839FE5
:100FE000A00D611D221F749F3327A00D611D231FBB
:100FF000849F600D211D822F762F6A2F11249F5709
:1010000050409AF0F1F088234AF0EE0FFF1FBB1F0B
:10101000661F771F881F91505040A9F79E3F5105CA
:1010200080F00C946A070C94B5075F3FE4F3983E98
:10103000D4F3869577956795B795F795E7959F5F74
:10104000C1F7FE2B880F911D9695879597F9089506
:101050000E940906B7FF0895821B930B0895EE0FB7
:10106000FF1F0590F491E02D09940F931F93CF93E8
:10107000DF938230910510F482E090E0E091DA0194
:10108000F091DB0130E020E0B0E0A0E0309799F48F
:101090002115310509F44AC0281B390B24303105CC
:1010A000D8F58A819B816115710589F1FB019383D4
:1010B0008283FE0111C04081518102811381481752
:1010C0005907E0F04817590799F4109761F0129604
:1010D0000C93129713961C933296CF01DF91CF9108
:1010E0001F910F9108950093DA011093DB01F4CF63
:1010F0002115310551F04217530738F0A901DB01E2
:101100009A01BD01DF01F801C1CFEF01F9CF909342
:10111000DB018093DA01CDCFFE01E20FF31F819353
:1011200091932250310939832883D7CF2091D80158
:101130003091D901232B41F4209102013091030118
:101140003093D9012093D801209100013091010101
:101150002115310541F42DB73EB74091040150915E
:101160000501241B350BE091D801F091D901E2175C
:10117000F307A0F42E1B3F0B2817390778F0AC01BA
:101180004E5F5F4F2417350748F04E0F5F1F509397
:10119000D9014093D801819391939FCFF0E0E0E093
:1011A0009CCFCF93DF930097E9F0FC013297138235
:1011B0001282A091DA01B091DB01ED0130E020E074
:1011C0001097A1F420813181820F931F2091D801C3
:1011D0003091D9012817390709F061C0F093D9017E
:1011E000E093D801DF91CF910895EA01CE17DF0790
:1011F000E8F54A815B819E0141155105B1F7E9018E
:10120000FB83EA8349915991C40FD51FEC17FD0761
:1012100061F4808191810296840F951FE901998381
:101220008883828193819B838A83F0E0E0E0129639
:101230008D919C9113970097B9F52D913C91119741
:10124000CD010296820F931F2091D8013091D901D0
:101250002817390739F6309751F51092DB011092B3
:10126000DA01B093D901A093D801BCCFD383C28354
:1012700040815181840F951FC817D90761F44E5FD3
:101280005F4F88819981480F591F518340838A811C
:101290009B81938382832115310509F0B0CFF093B0
:1012A000DB01E093DA019ECFFD01DC01C0CF1382A8
:0812B0001282D7CFF894FFCFA2
:1012B8000000DC0180000000000027018700B40066
:0C12C8007401E500C300D7000D0A00000F
:107E0000112484B714BE81FFF0D085E080938100F7
:107E100082E08093C00088E18093C10086E0809377
:107E2000C20080E18093C4008EE0C9D0259A86E02C
:107E300020E33CEF91E0309385002093840096BBD3
:107E4000B09BFECF1D9AA8958150A9F7CC24DD24C4
:107E500088248394B5E0AB2EA1E19A2EF3E0BF2EE7
:107E6000A2D0813461F49FD0082FAFD0023811F036
:107E7000013811F484E001C083E08DD089C08234E0
:107E800011F484E103C0853419F485E0A6D080C0E4
:107E9000853579F488D0E82EFF2485D0082F10E0AE
:107EA000102F00270E291F29000F111F8ED06801E7
:107EB0006FC0863521F484E090D080E0DECF843638
:107EC00009F040C070D06FD0082F6DD080E0C81688
:107ED00080E7D80618F4F601B7BEE895C0E0D1E017
:107EE00062D089930C17E1F7F0E0CF16F0E7DF06D8
:107EF00018F0F601B7BEE89568D007B600FCFDCFD4
:107F0000A601A0E0B1E02C9130E011968C91119780
:107F100090E0982F8827822B932B1296FA010C0160
:107F200087BEE89511244E5F5F4FF1E0A038BF0790
:107F300051F7F601A7BEE89507B600FCFDCF97BE46
:107F4000E89526C08437B1F42ED02DD0F82E2BD052
:107F50003CD0F601EF2C8F010F5F1F4F84911BD097
:107F6000EA94F801C1F70894C11CD11CFA94CF0C13
:107F7000D11C0EC0853739F428D08EE10CD085E9AC
:107F80000AD08FE07ACF813511F488E018D01DD067
:107F900080E101D065CF982F8091C00085FFFCCF94
:107FA0009093C60008958091C00087FFFCCF809118
:107FB000C00084FD01C0A8958091C6000895E0E648
:107FC000F0E098E1908380830895EDDF803219F02E
:107FD00088E0F5DFFFCF84E1DECF1F93182FE3DFCA
:107FE0001150E9F7F2DF1F91089580E0E8DFEE27F6
:047FF000FF270994CA
:027FFE00040479
:0400000300007E007B
:00000001FF